:100000000C9434000C9451000C9451000C94510049
:100010000C9451000C9451000C9451000C9451001C
:100020000C9451000C9451000C9451000C9451000C
:100030000C9451000C9451000C9451000C945100FC
:100040000C9451000C9451000C9451000C945100EC
:100050000C9451000C9451000C9451000C945100DC
:100060000C9451000C94510011241FBECFEFD8E026
:10007000DEBFCDBF11E0A0E0B1E0E2E9FEE002C0EA
:1000800005900D92A235B107D9F721E0A2E5B1E0C4
:1000900001C01D92AE3CB207E1F70E94FD020C9434
:1000A00047070C940000FC0120819181291701F180
:1000B000222311F091111CC08091C601022E000C68
:1000C000330B280F311D87FD3A95232B89F0809142
:1000D000C701292F990F330B280F311D87FD3A9542
:1000E000232B31F0808191819093C7018093C601C9
:1000F0000895DC0111962C9111973091C4012303CE
:10010000F00111248C91E056FE4FE80FF11D87FDA0
:10011000FA9560830895823071F018F4813041F0CF
:100120000DC08330D1F0843049F491E080E008952F
:1001300090E08FEF089590E081E008951F928F93F3
:1001400084E091E09F938F930E9406040F900F909C
:100150000F900F9090E080E008959FEF80E0089569
:10016000FC0190819F3F39F0913039F081818F3FC0
:1001700031F084E0089581E0089582E0089583E0FD
:100180000895DC0111962C9111973091C40123033D
:10019000F00111248C91E056FE4FE80FF11D87FD10
:1001A000FA95808108950F931F93CF93DF93C2E553
:1001B000D1E000EA11E00E94F603F80164A170E0CA
:1001C0000E94820388830E94F603F80163A170E015
:1001D0000E9482038983CE010E94C1008111EBCF6E
:1001E00065E082E591E00E947900DF91CF911F9157
:1001F0000F910895FC01808188232CF48091C40123
:10020000815080830AC0082E000C990B2091C401F4
:1002100030E0821793070CF01082218122232CF406
:100220008091C301815081830895022E000C330B0D
:100230008091C30190E0281739070CF011820895CE
:100240000F931F93CF93DF9300D0CDB7DEB78C0110
:10025000FC01908180919C01981321C09181809133
:100260009D0198131CC08CE991E00E94C1000E947E
:100270008B000CE911E0F8012081820F89838091C5
:100280009D01980F9A83CE0101960E94FA00F80111
:100290008081918190939B0180939A0110C086EC9C
:1002A00091E00E94B000F8012081318130939B01E0
:1002B00020939A01682F8AE991E00E9479000F90BB
:1002C0000F90DF91CF911F910F9108951F93CF93BE
:1002D000DF9300D0CDB7DEB780919C0190919D0156
:1002E0009A8389838CE991E00E94C100182F8230A3
:1002F000A9F018F4813071F015C0833019F0843002
:1003000029F010C08A8181508A8318C08A818F5F4A
:100310008A8314C089818150898310C089818F5F4D
:1003200089830CC01F921F9384E091E09F938F9369
:100330000E9406040F900F900F900F90CE0101962F
:100340000E94FA0090919A0180919C0198130CC030
:1003500090919B0180919D01981306C0612F8CE9BB
:1003600091E00E9479000BC060E08CE991E00E946E
:10037000790089819A8190939D0180939C010F90CF
:100380000F90DF91CF911F910895CF93C62F0E94B8
:10039000200180919E01C53011F095E001C091E0EF
:1003A000890F80939E010E94D300EFE9F1E08081E4
:1003B0008F5F8083CF910895CF93DF9300D0CDB727
:1003C000DEB786EC91E00E94B000682F8AE991E0E8
:1003D0000E947900E6ECF1E0908180919A01890F0A
:1003E0008983918180919B01890F8A83CE01019637
:1003F0000E94FA00CE0101960E94C100882351F0AC
:100400009BEF980F923068F4682FCE0101960E94FE
:10041000C50123C0CE0101960E9420010E94660101
:100420001CC0998180919C01981314C09A8180917D
:100430009D0198130FC083E391E09F938F930E94D7
:100440000604CE0101960E9420010E9466010F90D1
:100450000F9003C081E08093C5010F900F90DF9152
:10046000CF9108950F931F93CF93DF9300D0CDB713
:10047000DEB783E29AE40E94FB03E6ECF1E081E060
:1004800080831182E0EAF1E085E083A387E084A322
:1004900010929E0110929F0183EC91E01192E81757
:1004A000F907E1F783E0898382E08A8361E0CE0186
:1004B00001960E94790089819A8190939B01809393
:1004C0009A0100EA11E0F80193A1969584A186951E
:1004D0008F5F89839A8361E0CE0101960E94790043
:1004E000F80193A1969584A186958E5F89839A835E
:1004F00061E0CE0101960E94790089819A819093F2
:100500009D0180939C010E94D30086EC91E00E94A3
:1005100053000F900F90DF91CF911F910F9108958D
:100520008FEF87B98FE784B9089599B19F7081E003
:1005300009F480E008957F928F929F92AF92BF92CC
:10054000CF92DF92EF92FF920F931F93CF93DF939F
:1005500000D0CDB7DEB74C010F2EF0EAAF2EF1E0A0
:10056000BF2EF02DCC24C394D12C2EC000E010E07F
:10057000712CF9820A83CE0101960E94C100882362
:1005800041F0C601002E02C0880F991F0A94E2F7BD
:10059000782A0F5F1F4F0E1560F3C6010F2C02C0A3
:1005A000880F991F0A94E2F7809585B978B8F3947B
:1005B000F50184A1F81610F007C0F12CF501E3A0B5
:1005C000E110D4CF712CE9CFF1E08F1A910828F017
:1005D000F50184A18111F1CFF7CF0F900F90DF913A
:1005E000CF911F910F91FF90EF90DF90CF90BF9030
:1005F000AF909F908F907F900895CF93DF9300D01E
:10060000CDB7DEB70E9432021092C501198281E097
:100610008A830E9490021AB80F2EFAE0EF2EF02D76
:1006200000EA11E00F2EFEEF6F2EF02DFF24FA945A
:100630000F2EFDEF7F2EF02D0F2EFBEF8F2EF02DC6
:100640000F2EF7EF9F2EF02D0F2EFFEEAF2EF02D79
:100650000F2EFFEDBF2EF02D0F2EFFEBCF2EF02D26
:100660000F2EFFE7DF2EF02D5524539401C0EA949E
:10067000F80185A181112AC04B9B03C01982FA821F
:100680000EC0489B03C019825A8209C0499B03C00F
:10069000F9821A8204C04A9B02C059821A82CE0192
:1006A00001960E94530085E090E00E949B0287E83B
:1006B00093E10197F1F700C00000E110D8CF0E944C
:1006C000DC010F2EFAE0EF2EF02DD2CF813081F633
:1006D00065B8F8B875B8F8B885B8F8B895B8F8B886
:1006E000A5B8F8B8B5B8F8B8C5B8F8B8D5B8F8B876
:1006F0000E949502882309F4BBCFF80115A20E943D
:100700003202B6CF97FB072E16F4009407D077FD80
:1007100009D00E94960307FC05D03EF49095819580
:100720009F4F0895709561957F4F0895AA1BBB1B3D
:1007300051E107C0AA1FBB1FA617B70710F0A61BE1
:10074000B70B881F991F5A95A9F780959095BC0102
:10075000CD0108958F929F92AF92BF92CF92DF9278
:10076000EF92FF92CF93DF93EC01688179818A81C8
:100770009B81611571058105910521F464E279ED94
:100780008BE597E02DE133EF41E050E00E94AD06AC
:1007900049015A019B01AC01A7EAB1E40E94CC06D1
:1007A0006B017C01ACEEB4EFA50194010E94DA0666
:1007B000DC01CB018C0D9D1DAE1DBF1DB7FF03C01D
:1007C0000197A109B04888839983AA83BB839F7747
:1007D000DF91CF91FF90EF90DF90CF90BF90AF90DF
:1007E0009F908F9008950E94AA03089580E091E061
:1007F0000E94AA030895A0E0B0E0809300019093C6
:100800000101A0930201B09303010895A0E0B0E0BC
:10081000ECE0F4E00C94EF06AE014B5F5F4FFA01A1
:1008200061917191AF018091CA019091CB010E94B9
:100830001C04E2E00C940B07ABE0B0E0E2E2F4E071
:100840000C94DF066C017B018A01FC011782168281
:10085000838181FFCCC1CE0101963C01F6019381D9
:10086000F70193FD859193FF81917F01882309F41E
:10087000BAC1853239F493FD859193FF81917F014F
:10088000853229F4B60190E00E941306E7CF912C3F
:10089000212C312CFFE1F315D8F08B3279F038F4AC
:1008A000803279F08332A1F4232D20611DC08D3276
:1008B00061F0803369F4232D216016C0832D82609E
:1008C000382EE32DE4603E2E2AC0F32DF8601DC0C3
:1008D00037FC2DC020ED280F2A3040F08E32B9F4BD
:1008E00036FC81C1232D2064322E19C036FE06C08D
:1008F0008AE0989E200D1124922E11C0EAE02E9ECF
:10090000200D1124222EF32DF0623F2E08C08C36CC
:1009100021F4832D8068382E02C0883641F4F70117
:1009200093FD859193FF81917F018111B3CF982F22
:100930009F7D9554933028F40C5F1F4F9FE399835C
:100940000DC0833631F0833771F0833509F059C01B
:1009500021C0F801808189830E5F1F4F8824839412
:10096000912C530113C02801F2E04F0E511CF801E5
:10097000A080B18036FE03C0692D70E002C06FEF29
:100980007FEFC5010E9408064C018201F32DFF771D
:100990003F2E16C0280122E0420E511CF801A08013
:1009A000B18036FE03C0692D70E002C06FEF7FEFAB
:1009B000C5010E94FD054C01F32DF0683F2E820118
:1009C00033FC1BC0822D90E088169906B0F4B60166
:1009D00080E290E00E9413062A94F4CFF50137FCE0
:1009E000859137FE81915F01B60190E00E94130668
:1009F00021102A9421E0821A91088114910471F740
:100A0000E8C0843611F0893641F5F80137FE07C099
:100A100060817181828193810C5F1F4F08C060816A
:100A20007181072E000C880B990B0E5F1F4FF32D61
:100A3000FF763F2E97FF09C0909580957095619540
:100A40007F4F8F4F9F4FF0683F2E2AE030E0A30189
:100A50000E944F06882E861845C0853731F4232D15
:100A60002F7EB22E2AE030E025C0932D997FB92E3B
:100A70008F36C1F018F4883579F0B5C0803719F099
:100A8000883721F0B0C0E92FE061BE2EB4FE0DC062
:100A9000FB2DF460BF2E09C034FE0AC0292F26604A
:100AA000B22E06C028E030E005C020E130E002C0F0
:100AB00020E132E0F801B7FE07C0608171818281D8
:100AC00093810C5F1F4F06C06081718180E090E0D0
:100AD0000E5F1F4FA3010E944F06882E8618FB2D24
:100AE000FF773F2E36FE0DC0232D2E7FA22E8914B8
:100AF00058F434FE0BC032FC09C0832D8E7EA82E24
:100B000005C0B82CA32C03C0B82C01C0B92CA4FE7E
:100B10000FC0FE01E80DF11D8081803321F49A2D74
:100B2000997EA92E09C0A2FE06C0B394B39404C056
:100B30008A2D867809F0B394A3FC11C0A0FE06C0EC
:100B4000B21488F4280C922C9B180EC0B21460F4D6
:100B5000B60180E290E00E941306B394F7CFB2147E
:100B600018F42B1802C0982C212CA4FE10C0B6013A
:100B700080E390E00E941306A2FE17C0A1FC03C010
:100B800088E790E002C088E590E0B6010CC08A2DAD
:100B9000867859F0A1FE02C08BE201C080E2A7FC7A
:100BA0008DE2B60190E00E941306891438F4B60174
:100BB00080E390E00E9413069A94F7CF8A94F301A1
:100BC000E80DF11D8081B60190E00E9413068110AE
:100BD000F5CF222009F442CEB60180E290E00E94D7
:100BE00013062A94F6CFF6018681978102C08FEF13
:100BF0009FEF2B96E2E10C94FB06FC0105906150FF
:100C000070400110D8F7809590958E0F9F1F089522
:100C1000FC016150704001900110D8F780959095CB
:100C20008E0F9F1F08950F931F93CF93DF93FB01A8
:100C3000238121FD03C08FEF9FEF2CC022FF16C040
:100C400046815781248135814217530744F4A0819E
:100C5000B1819D012F5F3F4F318320838C9326818B
:100C600037812F5F3F4F3783268314C08B01EC0100
:100C7000FB010084F185E02D0995892BE1F6D8016F
:100C800016968D919C911797019617969C938E932B
:100C90001697CE01DF91CF911F910F910895FA0120
:100CA000AA27283051F1203181F1E8946F936E7FAB
:100CB0006E5F7F4F8F4F9F4FAF4FB1E03ED0B4E09C
:100CC0003CD0670F781F891F9A1FA11D680F791FDD
:100CD0008A1F911DA11D6A0F711D811D911DA11DEE
:100CE00020D009F468943F912AE0269F11243019FE
:100CF000305D3193DEF6CF010895462F4770405D99
:100D00004193B3E00FD0C9F7F6CF462F4F70405D47
:100D10004A3318F0495D31FD4052419302D0A9F7A2
:100D2000EACFB4E0A6959795879577956795BA959C
:100D3000C9F700976105710508959B01AC010A2E62
:100D400006945795479537952795BA95C9F7620F39
:100D5000731F841F951FA01D0895052E97FB1EF479
:100D600000940E94C40657FD07D00E94160707FC96
:100D700003D04EF40C94C4065095409530952195BF
:100D80003F4F4F4F5F4F08959095809570956195B7
:100D90007F4F8F4F9F4F08950E943807A59F900D5A
:100DA000B49F900DA49F800D911D11240895B7FF4D
:100DB0000C94CC060E94CC06821B930B08952F92B4
:100DC0003F924F925F926F927F928F929F92AF92DB
:100DD000BF92CF92DF92EF92FF920F931F93CF9328
:100DE000DF93CDB7DEB7CA1BDB0B0FB6F894DEBFBF
:100DF0000FBECDBF09942A88398848885F846E84E5
:100E00007D848C849B84AA84B984C884DF80EE802E
:100E1000FD800C811B81AA81B981CE0FD11D0FB637
:100E2000F894DEBF0FBECDBFED010895A1E21A2EEA
:100E3000AA1BBB1BFD010DC0AA1FBB1FEE1FFF1F7E
:100E4000A217B307E407F50720F0A21BB30BE40BCE
:100E5000F50B661F771F881F991F1A9469F7609515
:100E60007095809590959B01AC01BD01CF010895CF
:100E7000A29FB001B39FC001A39F700D811D1124DB
:100E8000911DB29F700D811D1124911D0895F8943C
:020E9000FFCF92
:100E920001000000496D706F737369626C65203ADE
:100EA2002025750A0048656164203A2025642C20BB
:100EB20025640A005461696C203A2025642C20259F
:100EC200640A00496E73696465207469636B28293A
:100ED20027732064656661756C74206C6162656C51
:020EE20000000E
:00000001FF
