:100000000C9434000C949D020C94AC020C94CA0223
:100010000C9451000C94BB020C9451000C945100B0
:100020000C9451000C9451000C9451000C9451000C
:100030000C9451000C9451000C9451000C945100FC
:100040000C9451000C9451000C9451000C945100EC
:100050000C9451000C9451000C9451000C945100DC
:100060000C9451000C94510011241FBECFEFD8E026
:10007000DEBFCDBF21E0A4E0B1E001C01D92AB37EF
:10008000B207E1F711E0A0E0B1E0ECE2F9E002C074
:1000900005900D92A430B107D9F70E9448030C9443
:1000A00094040C94000015B88FEF88B90895E9E620
:1000B000F0E080818C6080838DB383608DBB789409
:1000C000E8E6F0E0808185608083EDE6F0E0808105
:1000D00081608083EBE6F0E0808180688083089512
:1000E000FC0120819181291701F1222311F0911146
:1000F0001CC080917901022E000C330B280F311D9A
:1001000087FD3A95232B89F080917A01292F990F49
:10011000330B280F311D87FD3A95232B31F0808159
:10012000918190937A01809379010895DC01119671
:100130002C911197309177012303F00111248C91B8
:10014000ED5AFE4FE80FF11D87FDFA956083089583
:10015000823091F018F4813061F011C0833019F0D1
:10016000843021F00CC09FEF80E0089591E080E0A2
:10017000089590E08FEF089590E081E0089590E079
:1001800080E00895FC0190819F3F39F0913039F073
:1001900081818F3F31F084E0089581E0089582E00D
:1001A000089583E00895DC0111962C911197309108
:1001B00077012303F00111248C91ED5AFE4FE80FD3
:1001C000F11D87FDFA95808108950F931F93CF93BA
:1001D000DF93C5E0D1E003E511E00E942104F801BE
:1001E00064A170E00E94AD0388830E942104F8019D
:1001F00063A170E00E94AD038983CE010E94D30009
:100200008111EBCF65E085E091E00E949600DF91DF
:10021000CF911F910F9108950F931F93CF93DF9369
:1002200000D0CDB7DEB783E29AE40E942604E9E766
:10023000F1E081E080831182E3E5F1E085E083A3D2
:1002400087E084A3109251011092520186E791E059
:100250001192E817F907E1F783E0898382E08A8346
:1002600061E0CE0101960E94960089819A81909367
:100270004E0180934D0103E511E0F80193A196959D
:1002800084A186958F5F89839A8361E0CE01019670
:100290000E949600F80193A1969584A186958E5FA1
:1002A00089839A8361E0CE0101960E94960089813C
:1002B0009A819093500180934F010E94E50089E755
:1002C00091E00E9470000F900F90DF91CF911F91ED
:1002D0000F910895FC012081222324F421E0209332
:1002E00078010CC0022E000C330B4091770150E0D6
:1002F000241735071CF021E020937801FC0181814F
:10030000882324F481E0809378010895082E000C5E
:10031000990B2091760130E0821793071CF081E061
:100320008093780108950F931F93CF93DF9300D0AC
:10033000CDB7DEB78C01FC01908180914F019813FD
:1003400021C091818091500198131CC08FE491E0ED
:100350000E94D3000E94A8000FE411E0F801208160
:10036000820F898380915001980F9A83CE01019664
:100370000E946A01F8018081918190934E018093DF
:100380004D0110C089E791E00E94C200F801208170
:10039000318130934E0120934D01682F8DE491E01F
:1003A0000E9496000F900F90DF91CF911F910F91B7
:1003B00008951F93CF93DF9300D0CDB7DEB7809120
:1003C0004F01909150019A8389838FE491E00E94BC
:1003D000D300182F8230A9F018F4813071F014C0C6
:1003E000833019F0843029F00FC08A8181508A83CC
:1003F0000BC08A818F5F8A8307C08981815089837E
:1004000003C089818F5F8983CE0101960E946A01B2
:1004100090914D0180914F0198130CC090914E0125
:1004200080915001981306C0612F8FE491E00E94E3
:10043000960005C060E08FE491E00E9496008981FB
:100440009A819093500180934F010F900F90DF910C
:10045000CF911F910895CF93C62F0E949301C5306D
:1004600031F4E1E5F1E080818F5F808305C0E1E553
:10047000F1E080818B5F80830E94E500E2E5F1E09E
:1004800080818F5F8083CF910895CF93DF9300D0D9
:10049000CDB7DEB789E791E00E94C200682F8DE4F6
:1004A00091E00E949600E9E7F1E0908180914D0192
:1004B000890F8983918180914E01890F8A83CE01B2
:1004C00001960E946A01CE0101960E94D3008530F8
:1004D00029F0863049F0811114C00CC065E0CE01CE
:1004E00001960E942B0224C066E0CE0101960E9474
:1004F0002B021EC0CE0101960E9493010E94D901D9
:1005000017C0998180914F0198130FC09A818091F3
:10051000500198130AC0CE0101960E9493010E94D7
:10052000D90181E08093780103C081E08093780154
:100530000F900F90DF91CF9108951F920F920FB6F9
:100540000F9211248F9382E0809304018F910F907A
:100550000FBE0F901F9018951F920F920FB60F921B
:1005600011248F9381E0809304018F910F900FBE2F
:100570000F901F9018951F920F920FB60F92112493
:100580008F9384E0809304018F910F900FBE0F90A2
:100590001F9018951F920F920FB60F9211248F93F0
:1005A00083E0809304018F910F900FBE0F901F90F6
:1005B000189581E087B98FE784B91AB8089521E0CA
:1005C00030E002C0220F331F6A95E2F7209525B96B
:1005D00088B908957F928F929F92AF92BF92CF92E7
:1005E000DF92EF92FF920F931F93CF93DF9300D090
:1005F000CDB7DEB74C010F2EF3E5AF2EF1E0BF2EE5
:10060000F02DCC24C394D12C2BC000E010E0712C31
:10061000F9820A83CE0101960E94D300882341F01B
:10062000C601002E02C0880F991F0A94E2F7782AAB
:100630000F5F1F4F0E1560F36F2D872D0E94DF0295
:10064000F394F50184A1F81610F007C0F12CF50120
:10065000E3A0E110DACF712CEFCFF1E08F1A91080F
:100660008114910429F0F50184A18111EFCFF5CF18
:100670000F900F90DF91CF911F910F91FF90EF900E
:10068000DF90CF90BF90AF909F908F907F90089514
:10069000CF93DF9300D0CDB7DEB70E940C0110924C
:1006A0007801198281E08A830E94D9020E94570052
:1006B0000F2EFEE1FF2EF02D03E511E0DD24D39493
:1006C000EE24EA94F80185A1811133C080910401E0
:1006D000813019F41982EA8214C0809104018230B9
:1006E00019F41982DA820DC080910401833019F463
:1006F000E9821A8206C080910401843011F4D98203
:100700001A82CE0101960E94700085E090E00E945E
:10071000EA028FEC97E00197F1F700C00000FF209C
:1007200011F0FA9406C00E9445020F2EFEE1FF2E42
:10073000F02DF80185A1813029F60E945300FFE3D6
:100740002DE083E0F15020408040E1F700C0000040
:10075000F80115A20E940C01B5CF97FB072E16F4E5
:10076000009407D077FD09D00E94C10307FC05D093
:100770003EF4909581959F4F0895709561957F4FB8
:100780000895AA1BBB1B51E107C0AA1FBB1FA617D8
:10079000B70710F0A61BB70B881F991F5A95A9F72A
:1007A00080959095BC01CD0108958F929F92AF9254
:1007B000BF92CF92DF92EF92FF92CF93DF93EC0143
:1007C000688179818A819B81611571058105910517
:1007D00021F464E279ED8BE597E02DE133EF41E020
:1007E00050E00E94310449015A019B01AC01A7EA83
:1007F000B1E40E9450046B017C01ACEEB4EFA501A2
:1008000094010E945E04DC01CB018C0D9D1DAE1D88
:10081000BF1DB7FF03C00197A109B0488883998322
:10082000AA83BB839F77DF91CF91FF90EF90DF90FA
:10083000CF90BF90AF909F908F9008950E94D50366
:10084000089580E091E00E94D5030895A0E0B0E013
:100850008093000190930101A0930201B0930301E2
:100860000895052E97FB1EF400940E94480457FD3E
:1008700007D00E94630407FC03D04EF40C94480494
:1008800050954095309521953F4F4F4F5F4F0895BC
:1008900090958095709561957F4F8F4F9F4F0895EC
:1008A0000E948504A59F900DB49F900DA49F800D7C
:1008B000911D11240895B7FF0C9450040E94500418
:1008C000821B930B0895A1E21A2EAA1BBB1BFD01EC
:1008D0000DC0AA1FBB1FEE1FFF1FA217B307E4071F
:1008E000F50720F0A21BB30BE40BF50B661F771F77
:1008F000881F991F1A9469F7609570958095909557
:100900009B01AC01BD01CF010895A29FB001B39F2F
:10091000C001A39F700D811D1124911DB29F700D08
:0C092000811D1124911D0895F894FFCF53
:04092C0001000000C6
:00000001FF
