:100000000C9434000C94A2020C94B1020C94CF0214
:100010000C94C0020C9451000C9451000C945100AB
:100020000C9451000C9451000C9451000C9451000C
:100030000C9451000C9451000C9451000C945100FC
:100040000C9451000C9451000C9451000C945100EC
:100050000C9451000C9451000C9451000C945100DC
:100060000C9451000C94510011241FBECFEFD8E026
:10007000DEBFCDBF11E0A0E0B1E0ECE3FFE002C0E5
:1000800005900D92A631B107D9F721E0A6E1B1E0C4
:1000900001C01D92A339B207E1F70E944C030C94F2
:1000A0009C070C940000E9E6F0E080818C6080837E
:1000B0008DB383608DBB789481E080936800EDE61A
:1000C000F0E0808181608083EBE6F0E080818068F1
:1000D00080830895FC0120819181291701F1222359
:1000E00011F091111CC080918B01022E000C330B7A
:1000F000280F311D87FD3A95232B89F080918C01C3
:10010000292F990F330B280F311D87FD3A95232B8B
:1001100031F08081918190938C0180938B010895BF
:10012000DC0111962C911197309189012303F00184
:1001300011248C91EB59FE4FE80FF11D87FDFA95C4
:1001400060830895823071F018F4813041F00DC061
:100150008330D1F0843049F491E080E0089590E05C
:100160008FEF089590E081E008951F928F9384E0CF
:1001700091E09F938F930E945B040F900F900F90DC
:100180000F9090E080E008959FEF80E00895FC01DB
:1001900090819F3F39F0913039F081818F3F31F06C
:1001A00084E0089581E0089582E0089583E0089551
:1001B000DC0111962C911197309189012303F001F4
:1001C00011248C91EB59FE4FE80FF11D87FDFA9534
:1001D000808108950F931F93CF93DF93C7E1D1E000
:1001E00005E611E00E944B04F80164A170E00E9452
:1001F000D70388830E944B04F80163A170E00E943A
:10020000D7038983CE010E94D8008111EBCF65E02E
:1002100087E191E00E949000DF91CF911F910F91B3
:100220000895FC01808188232CF4809189018150FC
:1002300080830AC0082E000C990B2091890130E0C0
:10024000821793070CF01082218122232CF48091D5
:100250008801815081830895022E000C330B809118
:10026000880190E0281739070CF0118208950F9348
:100270001F93CF93DF9300D0CDB7DEB78C01FC0185
:10028000908180916101981321C0918180916201D8
:1002900098131CC081E691E00E94D8000E94A20041
:1002A00001E611E0F8012081820F898380916201CB
:1002B000980F9A83CE0101960E941101F801808166
:1002C00091819093600180935F0110C08BE891E071
:1002D0000E94C700F8012081318130936001209392
:1002E0005F01682F8FE591E00E9490000F900F90C2
:1002F000DF91CF911F910F9108951F93CF93DF93BB
:1003000000D0CDB7DEB780916101909162019A83F0
:10031000898381E691E00E94D800182F8230A9F0ED
:1003200018F4813071F015C0833019F0843029F051
:1003300010C08A8181508A8318C08A818F5F8A8326
:1003400014C089818150898310C089818F5F89831E
:100350000CC01F921F9384E091E09F938F930E94A3
:100360005B040F900F900F900F90CE0101960E94AA
:10037000110190915F018091610198130CC09091DF
:10038000600180916201981306C0612F81E691E0BF
:100390000E94900005C060E081E691E00E9490001C
:1003A00089819A8190936201809361010F900F90EF
:1003B000DF91CF911F910895CF93C62F0E943701EF
:1003C00080916301C53011F095E001C091E0890F83
:1003D000809363010E94EA00E4E6F1E080818F5F90
:1003E0008083CF910895CF93DF9300D0CDB7DEB750
:1003F0008BE891E00E94C700682F8FE591E00E9492
:100400009000EBE8F1E0908180915F01890F898392
:10041000918180916001890F8A83CE0101960E94AB
:100420001101CE0101960E94D800882351F09BEF64
:10043000980F923068F4682FCE0101960E94DC017B
:100440001EC0CE0101960E9437010E947D0117C097
:1004500099818091610198130FC09A818091620106
:1004600098130AC0CE0101960E9437010E947D01B7
:1004700081E080938A0103C081E080938A010F901C
:100480000F90DF91CF9108950F931F93CF93DF9338
:1004900000D0CDB7DEB783E29AE40E945004EBE8C7
:1004A000F1E081E080831182E5E6F1E085E083A35D
:1004B00087E084A3109263011092640188E891E0C0
:1004C0001192E817F907E1F783E0898382E08A83D4
:1004D00061E0CE0101960E94900089819A819093FB
:1004E000600180935F0105E611E0F80193A1969504
:1004F00084A186958F5F89839A8361E0CE010196FE
:100500000E949000F80193A1969584A186958E5F34
:1005100089839A8361E0CE0101960E9490008981CF
:100520009A8190936201809361010E94EA008BE8B6
:1005300091E00E946A000F900F90DF91CF911F9180
:100540000F9108951F920F920FB60F9211248F935F
:1005500082E0809316018F910F900FBE0F901F9035
:1005600018951F920F920FB60F9211248F9381E06E
:10057000809316018F910F900FBE0F901F901895CA
:100580001F920F920FB60F9211248F9383E08093E6
:1005900016018F910F900FBE0F901F9018951F920C
:1005A0000F920FB60F9211248F9383E08093160160
:1005B0008F910F900FBE0F901F90189581E087B913
:1005C0008FE784B91AB8089599B19C7981E009F44C
:1005D00080E008957F928F929F92AF92BF92CF92C8
:1005E000DF92EF92FF920F931F93CF93DF9300D090
:1005F000CDB7DEB74C010F2EF5E6AF2EF1E0BF2EE2
:10060000F02DCC24C394D12C2EC000E010E0712C2E
:10061000F9820A83CE0101960E94D800882341F016
:10062000C601002E02C0880F991F0A94E2F7782AAB
:100630000F5F1F4F0E1560F3C6010F2C02C0880F0D
:10064000991F0A94E2F7809585B978B8F394F5017B
:1006500084A1F81610F007C0F12CF501E3A0E11019
:10066000D4CF712CE9CFF1E08F1A910828F0F50171
:1006700084A18111F1CFF7CF0F900F90DF91CF912F
:100680001F910F91FF90EF90DF90CF90BF90AF90B0
:100690009F908F907F900895CF93DF9300D0CDB738
:1006A000DEB70E94440210928A01198281E08A8397
:1006B0000E94DE020E9453001AE00F2EF5E6EF2E94
:1006C000F1E0FF2EF02D0F2EFEEF5F2EF02D0FEF3D
:1006D0000F2EFDEF6F2EF02D0F2EFBEF7F2EF02D46
:1006E0000F2EF7EF8F2EF02D0F2EFFEE9F2EF02DF9
:1006F0000F2EFFEDAF2EF02D0F2EFFEBBF2EF02DA6
:100700000F2EFFE7CF2EF02DDD24D39401C0115022
:10071000F70185A181112FC080911601813019F454
:1007200019820A8314C080911601823019F419824B
:10073000DA820DC080911601833019F409831A8280
:1007400006C080911601843011F4D9821A82CE013C
:1007500001960E946A0085E090E00E94EA028FEC18
:1007600097E00197F1F700C000001111D0CF0E946F
:10077000F3011AE0CDCF813059F655B808B965B804
:1007800008B975B808B985B808B995B808B9A5B851
:1007900008B9B5B808B9C5B808B90E94E4028823F9
:1007A00009F4B6CFF70115A20E944402B1CF97FB1E
:1007B000072E16F4009407D077FD09D00E94EB03B2
:1007C00007FC05D03EF4909581959F4F0895709554
:1007D00061957F4F0895AA1BBB1B51E107C0AA1F5B
:1007E000BB1FA617B70710F0A61BB70B881F991FD2
:1007F0005A95A9F780959095BC01CD0108958F92E7
:100800009F92AF92BF92CF92DF92EF92FF92CF93DF
:10081000DF93EC01688179818A819B816115710583
:100820008105910521F464E279ED8BE597E02DE1F6
:1008300033EF41E050E00E94020749015A019B0159
:10084000AC01A7EAB1E40E9421076B017C01ACEE88
:10085000B4EFA50194010E942F07DC01CB018C0DA0
:100860009D1DAE1DBF1DB7FF03C00197A109B04874
:1008700088839983AA83BB839F77DF91CF91FF9071
:10088000EF90DF90CF90BF90AF909F908F900895A2
:100890000E94FF03089580E091E00E94FF03089505
:1008A000A0E0B0E08093000190930101A0930201C9
:1008B000B09303010895A0E0B0E0E1E6F4E00C9409
:1008C0004407AE014B5F5F4FFA0161917191AF0137
:1008D00080918F01909190010E947104E2E00C944C
:1008E0006007ABE0B0E0E7E7F4E00C9434076C019C
:1008F0007B018A01FC0117821682838181FFCCC1B2
:10090000CE0101963C01F6019381F70193FD85919B
:1009100093FF81917F01882309F4BAC1853239F4AC
:1009200093FD859193FF81917F01853229F4B60172
:1009300090E00E946806E7CF912C212C312CFFE13A
:10094000F315D8F08B3279F038F4803279F08332B5
:10095000A1F4232D20611DC08D3261F0803369F434
:10096000232D216016C0832D8260382EE32DE46094
:100970003E2E2AC0F32DF8601DC037FC2DC020ED9F
:10098000280F2A3040F08E32B9F436FC81C1232D75
:100990002064322E19C036FE06C08AE0989E200DD3
:1009A0001124922E11C0EAE02E9E200D1124222E39
:1009B000F32DF0623F2E08C08C3621F4832D806821
:1009C000382E02C0883641F4F70193FD859193FFDC
:1009D00081917F018111B3CF982F9F7D95549330E2
:1009E00028F40C5F1F4F9FE399830DC0833631F0CD
:1009F000833771F0833509F059C021C0F801808137
:100A000089830E5F1F4F88248394912C530113C058
:100A10002801F2E04F0E511CF801A080B18036FE93
:100A200003C0692D70E002C06FEF7FEFC5010E9427
:100A30005D064C018201F32DFF773F2E16C0280181
:100A400022E0420E511CF801A080B18036FE03C0A6
:100A5000692D70E002C06FEF7FEFC5010E94520662
:100A60004C01F32DF0683F2E820133FC1BC0822D18
:100A700090E088169906B0F4B60180E290E00E94FA
:100A800068062A94F4CFF50137FC859137FE8191F1
:100A90005F01B60190E00E94680621102A9421E0CF
:100AA000821A91088114910471F7E8C0843611F01C
:100AB000893641F5F80137FE07C060817181828176
:100AC00093810C5F1F4F08C060817181072E000C5D
:100AD000880B990B0E5F1F4FF32DFF763F2E97FF6C
:100AE00009C090958095709561957F4F8F4F9F4F6E
:100AF000F0683F2E2AE030E0A3010E94A406882E71
:100B0000861845C0853731F4232D2F7EB22E2AE07A
:100B100030E025C0932D997FB92E8F36C1F018F49F
:100B2000883579F0B5C0803719F0883721F0B0C02A
:100B3000E92FE061BE2EB4FE0DC0FB2DF460BF2E88
:100B400009C034FE0AC0292F2660B22E06C028E054
:100B500030E005C020E130E002C020E132E0F801E1
:100B6000B7FE07C060817181828193810C5F1F4F46
:100B700006C06081718180E090E00E5F1F4FA3018D
:100B80000E94A406882E8618FB2DFF773F2E36FE86
:100B90000DC0232D2E7FA22E891458F434FE0BC0D5
:100BA00032FC09C0832D8E7EA82E05C0B82CA32C44
:100BB00003C0B82C01C0B92CA4FE0FC0FE01E80D83
:100BC000F11D8081803321F49A2D997EA92E09C0D0
:100BD000A2FE06C0B394B39404C08A2D867809F0AF
:100BE000B394A3FC11C0A0FE06C0B21488F4280C74
:100BF000922C9B180EC0B21460F4B60180E290E013
:100C00000E946806B394F7CFB21418F42B1802C0F0
:100C1000982C212CA4FE10C0B60180E390E00E9425
:100C20006806A2FE17C0A1FC03C088E790E002C0DE
:100C300088E590E0B6010CC08A2D867859F0A1FEB7
:100C400002C08BE201C080E2A7FC8DE2B60190E019
:100C50000E946806891438F4B60180E390E00E948F
:100C600068069A94F7CF8A94F301E80DF11D80810C
:100C7000B60190E00E9468068110F5CF222009F4A9
:100C800042CEB60180E290E00E9468062A94F6CF38
:100C9000F6018681978102C08FEF9FEF2B96E2E1EC
:100CA0000C945007FC010590615070400110D8F77A
:100CB000809590958E0F9F1F0895FC0161507040A4
:100CC00001900110D8F7809590958E0F9F1F089581
:100CD0000F931F93CF93DF93FB01238121FD03C06B
:100CE0008FEF9FEF2CC022FF16C0468157812481D1
:100CF00035814217530744F4A081B1819D012F5FD4
:100D00003F4F318320838C93268137812F5F3F4F64
:100D10003783268314C08B01EC01FB010084F1852D
:100D2000E02D0995892BE1F6D80116968D919C91BD
:100D30001797019617969C938E931697CE01DF9185
:100D4000CF911F910F910895FA01AA27283051F1F0
:100D5000203181F1E8946F936E7F6E5F7F4F8F4FEC
:100D60009F4FAF4FB1E03ED0B4E03CD0670F781F4B
:100D7000891F9A1FA11D680F791F8A1F911DA11D30
:100D80006A0F711D811D911DA11D20D009F4689469
:100D90003F912AE0269F11243019305D3193DEF611
:100DA000CF010895462F4770405D4193B3E00FD0C7
:100DB000C9F7F6CF462F4F70405D4A3318F0495DB2
:100DC00031FD4052419302D0A9F7EACFB4E0A69595
:100DD0009795879577956795BA95C9F700976105B7
:100DE000710508959B01AC010A2E0694579547950D
:100DF00037952795BA95C9F7620F731F841F951F02
:100E0000A01D0895052E97FB1EF400940E9419075B
:100E100057FD07D00E946B0707FC03D04EF40C94DB
:100E2000190750954095309521953F4F4F4F5F4F93
:100E3000089590958095709561957F4F8F4F9F4F46
:100E400008950E948D07A59F900DB49F900DA49FBB
:100E5000800D911D11240895B7FF0C9421070E9465
:100E60002107821B930B08952F923F924F925F921E
:100E70006F927F928F929F92AF92BF92CF92DF92AA
:100E8000EF92FF920F931F93CF93DF93CDB7DEB70F
:100E9000CA1BDB0B0FB6F894DEBF0FBECDBF0994A3
:100EA0002A88398848885F846E847D848C849B84FA
:100EB000AA84B984C884DF80EE80FD800C811B8108
:100EC000AA81B981CE0FD11D0FB6F894DEBF0FBE37
:100ED000CDBFED010895A1E21A2EAA1BBB1BFD0197
:100EE0000DC0AA1FBB1FEE1FFF1FA217B307E40709
:100EF000F50720F0A21BB30BE40BF50B661F771F61
:100F0000881F991F1A9469F7609570958095909540
:100F10009B01AC01BD01CF010895A29FB001B39F19
:100F2000C001A39F700D811D1124911DB29F700DF2
:0C0F3000811D1124911D0895F894FFCF3D
:100F3C0001000000496D706F737369626C65203A33
:060F4C002025750A0000DB
:00000001FF
